{
  "_format": "hh-sol-artifact-1",
  "contractName": "Whisky",
  "sourceName": "contracts/Whisky.sol",
  "abi": [
    {
      "inputs": [],
      "stateMutability": "nonpayable",
      "type": "constructor"
    },
    {
      "anonymous": false,
      "inputs": [
        {
          "indexed": true,
          "internalType": "address",
          "name": "_owner",
          "type": "address"
        },
        {
          "indexed": true,
          "internalType": "address",
          "name": "_approved",
          "type": "address"
        },
        {
          "indexed": true,
          "internalType": "uint256",
          "name": "_tokenId",
          "type": "uint256"
        }
      ],
      "name": "Approval",
      "type": "event"
    },
    {
      "anonymous": false,
      "inputs": [
        {
          "indexed": true,
          "internalType": "address",
          "name": "_owner",
          "type": "address"
        },
        {
          "indexed": true,
          "internalType": "address",
          "name": "_operator",
          "type": "address"
        },
        {
          "indexed": false,
          "internalType": "bool",
          "name": "_approved",
          "type": "bool"
        }
      ],
      "name": "ApprovalForAll",
      "type": "event"
    },
    {
      "anonymous": false,
      "inputs": [
        {
          "indexed": false,
          "internalType": "uint256",
          "name": "tokenId",
          "type": "uint256"
        },
        {
          "indexed": false,
          "internalType": "string",
          "name": "name",
          "type": "string"
        },
        {
          "indexed": false,
          "internalType": "uint256",
          "name": "price",
          "type": "uint256"
        },
        {
          "indexed": false,
          "internalType": "string",
          "name": "metadataURI",
          "type": "string"
        },
        {
          "indexed": false,
          "internalType": "address",
          "name": "currentOwner",
          "type": "address"
        }
      ],
      "name": "AssetCreated",
      "type": "event"
    },
    {
      "anonymous": false,
      "inputs": [
        {
          "indexed": false,
          "internalType": "uint256",
          "name": "tokenId",
          "type": "uint256"
        },
        {
          "indexed": false,
          "internalType": "enum Whisky.AssetStatus",
          "name": "status",
          "type": "uint8"
        },
        {
          "indexed": false,
          "internalType": "uint256",
          "name": "price",
          "type": "uint256"
        }
      ],
      "name": "AssetResell",
      "type": "event"
    },
    {
      "anonymous": false,
      "inputs": [
        {
          "indexed": false,
          "internalType": "uint256",
          "name": "tokenId",
          "type": "uint256"
        },
        {
          "indexed": false,
          "internalType": "string",
          "name": "name",
          "type": "string"
        },
        {
          "indexed": false,
          "internalType": "uint256",
          "name": "price",
          "type": "uint256"
        },
        {
          "indexed": false,
          "internalType": "string",
          "name": "metadataURI",
          "type": "string"
        },
        {
          "indexed": false,
          "internalType": "address",
          "name": "owner",
          "type": "address"
        },
        {
          "indexed": false,
          "internalType": "address",
          "name": "buyer",
          "type": "address"
        }
      ],
      "name": "AssetSold",
      "type": "event"
    },
    {
      "anonymous": false,
      "inputs": [
        {
          "indexed": true,
          "internalType": "address",
          "name": "_from",
          "type": "address"
        },
        {
          "indexed": true,
          "internalType": "address",
          "name": "_to",
          "type": "address"
        },
        {
          "indexed": true,
          "internalType": "uint256",
          "name": "_tokenId",
          "type": "uint256"
        }
      ],
      "name": "Transfer",
      "type": "event"
    },
    {
      "inputs": [
        {
          "internalType": "address",
          "name": "_approved",
          "type": "address"
        },
        {
          "internalType": "uint256",
          "name": "_tokenId",
          "type": "uint256"
        }
      ],
      "name": "approve",
      "outputs": [],
      "stateMutability": "nonpayable",
      "type": "function"
    },
    {
      "inputs": [
        {
          "internalType": "address",
          "name": "_owner",
          "type": "address"
        }
      ],
      "name": "balanceOf",
      "outputs": [
        {
          "internalType": "uint256",
          "name": "",
          "type": "uint256"
        }
      ],
      "stateMutability": "view",
      "type": "function"
    },
    {
      "inputs": [
        {
          "internalType": "uint256",
          "name": "_tokenId",
          "type": "uint256"
        }
      ],
      "name": "buyAsset",
      "outputs": [],
      "stateMutability": "payable",
      "type": "function"
    },
    {
      "inputs": [
        {
          "internalType": "uint256",
          "name": "_price",
          "type": "uint256"
        },
        {
          "internalType": "string",
          "name": "_metadataURI",
          "type": "string"
        },
        {
          "internalType": "string",
          "name": "name",
          "type": "string"
        }
      ],
      "name": "createAndSellAsset",
      "outputs": [],
      "stateMutability": "nonpayable",
      "type": "function"
    },
    {
      "inputs": [],
      "name": "findAllAssets",
      "outputs": [
        {
          "components": [
            {
              "internalType": "uint256",
              "name": "tokenId",
              "type": "uint256"
            },
            {
              "internalType": "address",
              "name": "owner",
              "type": "address"
            },
            {
              "internalType": "uint256",
              "name": "price",
              "type": "uint256"
            },
            {
              "internalType": "enum Whisky.AssetStatus",
              "name": "status",
              "type": "uint8"
            },
            {
              "internalType": "string",
              "name": "metadataURI",
              "type": "string"
            },
            {
              "internalType": "string",
              "name": "name",
              "type": "string"
            },
            {
              "internalType": "uint256",
              "name": "timestamp",
              "type": "uint256"
            }
          ],
          "internalType": "struct Whisky.ReturnedAsset[]",
          "name": "",
          "type": "tuple[]"
        }
      ],
      "stateMutability": "view",
      "type": "function"
    },
    {
      "inputs": [
        {
          "internalType": "uint256",
          "name": "_tokenId",
          "type": "uint256"
        }
      ],
      "name": "findAsset",
      "outputs": [
        {
          "components": [
            {
              "internalType": "uint256",
              "name": "tokenId",
              "type": "uint256"
            },
            {
              "internalType": "address",
              "name": "owner",
              "type": "address"
            },
            {
              "internalType": "uint256",
              "name": "price",
              "type": "uint256"
            },
            {
              "internalType": "enum Whisky.AssetStatus",
              "name": "status",
              "type": "uint8"
            },
            {
              "internalType": "string",
              "name": "metadataURI",
              "type": "string"
            },
            {
              "internalType": "string",
              "name": "name",
              "type": "string"
            },
            {
              "internalType": "uint256",
              "name": "timestamp",
              "type": "uint256"
            }
          ],
          "internalType": "struct Whisky.ReturnedAsset",
          "name": "",
          "type": "tuple"
        }
      ],
      "stateMutability": "view",
      "type": "function"
    },
    {
      "inputs": [],
      "name": "findAvailableAssets",
      "outputs": [
        {
          "components": [
            {
              "internalType": "uint256",
              "name": "tokenId",
              "type": "uint256"
            },
            {
              "internalType": "address",
              "name": "owner",
              "type": "address"
            },
            {
              "internalType": "uint256",
              "name": "price",
              "type": "uint256"
            },
            {
              "internalType": "enum Whisky.AssetStatus",
              "name": "status",
              "type": "uint8"
            },
            {
              "internalType": "string",
              "name": "metadataURI",
              "type": "string"
            },
            {
              "internalType": "string",
              "name": "name",
              "type": "string"
            },
            {
              "internalType": "uint256",
              "name": "timestamp",
              "type": "uint256"
            }
          ],
          "internalType": "struct Whisky.ReturnedAsset[]",
          "name": "",
          "type": "tuple[]"
        }
      ],
      "stateMutability": "view",
      "type": "function"
    },
    {
      "inputs": [],
      "name": "findMyAssets",
      "outputs": [
        {
          "components": [
            {
              "internalType": "uint256",
              "name": "tokenId",
              "type": "uint256"
            },
            {
              "internalType": "uint256",
              "name": "price",
              "type": "uint256"
            },
            {
              "internalType": "enum Whisky.AssetStatus",
              "name": "status",
              "type": "uint8"
            },
            {
              "internalType": "string",
              "name": "metadataURI",
              "type": "string"
            },
            {
              "internalType": "string",
              "name": "name",
              "type": "string"
            },
            {
              "internalType": "uint256",
              "name": "timestamp",
              "type": "uint256"
            }
          ],
          "internalType": "struct Whisky.Asset[]",
          "name": "",
          "type": "tuple[]"
        }
      ],
      "stateMutability": "view",
      "type": "function"
    },
    {
      "inputs": [
        {
          "internalType": "uint256",
          "name": "_tokenId",
          "type": "uint256"
        }
      ],
      "name": "getApproved",
      "outputs": [
        {
          "internalType": "address",
          "name": "",
          "type": "address"
        }
      ],
      "stateMutability": "view",
      "type": "function"
    },
    {
      "inputs": [
        {
          "internalType": "uint256",
          "name": "_tokenId",
          "type": "uint256"
        }
      ],
      "name": "getAssetTransactions",
      "outputs": [
        {
          "components": [
            {
              "internalType": "uint256",
              "name": "id",
              "type": "uint256"
            },
            {
              "internalType": "uint256",
              "name": "price",
              "type": "uint256"
            },
            {
              "internalType": "address",
              "name": "seller",
              "type": "address"
            },
            {
              "internalType": "address",
              "name": "buyer",
              "type": "address"
            },
            {
              "internalType": "uint256",
              "name": "timestamp",
              "type": "uint256"
            },
            {
              "internalType": "enum Whisky.AssetTxnStatus",
              "name": "status",
              "type": "uint8"
            }
          ],
          "internalType": "struct Whisky.AssetTxn[]",
          "name": "",
          "type": "tuple[]"
        }
      ],
      "stateMutability": "view",
      "type": "function"
    },
    {
      "inputs": [
        {
          "internalType": "address",
          "name": "_owner",
          "type": "address"
        },
        {
          "internalType": "address",
          "name": "_operator",
          "type": "address"
        }
      ],
      "name": "isApprovedForAll",
      "outputs": [
        {
          "internalType": "bool",
          "name": "",
          "type": "bool"
        }
      ],
      "stateMutability": "view",
      "type": "function"
    },
    {
      "inputs": [],
      "name": "name",
      "outputs": [
        {
          "internalType": "string",
          "name": "",
          "type": "string"
        }
      ],
      "stateMutability": "view",
      "type": "function"
    },
    {
      "inputs": [
        {
          "internalType": "uint256",
          "name": "_tokenId",
          "type": "uint256"
        }
      ],
      "name": "ownerOf",
      "outputs": [
        {
          "internalType": "address",
          "name": "",
          "type": "address"
        }
      ],
      "stateMutability": "view",
      "type": "function"
    },
    {
      "inputs": [
        {
          "internalType": "uint256",
          "name": "_tokenId",
          "type": "uint256"
        },
        {
          "internalType": "uint256",
          "name": "_price",
          "type": "uint256"
        }
      ],
      "name": "resellAsset",
      "outputs": [],
      "stateMutability": "nonpayable",
      "type": "function"
    },
    {
      "inputs": [
        {
          "internalType": "address",
          "name": "_from",
          "type": "address"
        },
        {
          "internalType": "address",
          "name": "_to",
          "type": "address"
        },
        {
          "internalType": "uint256",
          "name": "_tokenId",
          "type": "uint256"
        }
      ],
      "name": "safeTransferFrom",
      "outputs": [],
      "stateMutability": "nonpayable",
      "type": "function"
    },
    {
      "inputs": [
        {
          "internalType": "address",
          "name": "_from",
          "type": "address"
        },
        {
          "internalType": "address",
          "name": "_to",
          "type": "address"
        },
        {
          "internalType": "uint256",
          "name": "_tokenId",
          "type": "uint256"
        },
        {
          "internalType": "bytes",
          "name": "_data",
          "type": "bytes"
        }
      ],
      "name": "safeTransferFrom",
      "outputs": [],
      "stateMutability": "nonpayable",
      "type": "function"
    },
    {
      "inputs": [
        {
          "internalType": "address",
          "name": "_operator",
          "type": "address"
        },
        {
          "internalType": "bool",
          "name": "_approved",
          "type": "bool"
        }
      ],
      "name": "setApprovalForAll",
      "outputs": [],
      "stateMutability": "nonpayable",
      "type": "function"
    },
    {
      "inputs": [
        {
          "internalType": "bytes4",
          "name": "interfaceId",
          "type": "bytes4"
        }
      ],
      "name": "supportsInterface",
      "outputs": [
        {
          "internalType": "bool",
          "name": "",
          "type": "bool"
        }
      ],
      "stateMutability": "view",
      "type": "function"
    },
    {
      "inputs": [],
      "name": "symbol",
      "outputs": [
        {
          "internalType": "string",
          "name": "",
          "type": "string"
        }
      ],
      "stateMutability": "view",
      "type": "function"
    },
    {
      "inputs": [
        {
          "internalType": "address",
          "name": "_from",
          "type": "address"
        },
        {
          "internalType": "address",
          "name": "_to",
          "type": "address"
        },
        {
          "internalType": "uint256",
          "name": "_tokenId",
          "type": "uint256"
        }
      ],
      "name": "transferFrom",
      "outputs": [],
      "stateMutability": "nonpayable",
      "type": "function"
    }
  ],
  "bytecode": "0x6080604052600060085534801561001557600080fd5b506040518060400160405280600681526020017f576869736b7900000000000000000000000000000000000000000000000000008152506040518060400160405280600581526020017f5748534b59000000000000000000000000000000000000000000000000000000815250816000908161009191906102f9565b5080600190816100a191906102f9565b5050506103cb565b600081519050919050565b7f4e487b7100000000000000000000000000000000000000000000000000000000600052604160045260246000fd5b7f4e487b7100000000000000000000000000000000000000000000000000000000600052602260045260246000fd5b6000600282049050600182168061012a57607f821691505b60208210810361013d5761013c6100e3565b5b50919050565b60008190508160005260206000209050919050565b60006020601f8301049050919050565b600082821b905092915050565b6000600883026101a57fffffffffffffffffffffffffffffffffffffffffffffffffffffffffffffffff82610168565b6101af8683610168565b95508019841693508086168417925050509392505050565b6000819050919050565b6000819050919050565b60006101f66101f16101ec846101c7565b6101d1565b6101c7565b9050919050565b6000819050919050565b610210836101db565b61022461021c826101fd565b848454610175565b825550505050565b600090565b61023961022c565b610244818484610207565b505050565b5b818110156102685761025d600082610231565b60018101905061024a565b5050565b601f8211156102ad5761027e81610143565b61028784610158565b81016020851015610296578190505b6102aa6102a285610158565b830182610249565b50505b505050565b600082821c905092915050565b60006102d0600019846008026102b2565b1980831691505092915050565b60006102e983836102bf565b9150826002028217905092915050565b610302826100a9565b67ffffffffffffffff81111561031b5761031a6100b4565b5b6103258254610112565b61033082828561026c565b600060209050601f8311600181146103635760008415610351578287015190505b61035b85826102dd565b8655506103c3565b601f19841661037186610143565b60005b8281101561039957848901518255600182019150602085019450602081019050610374565b868310156103b657848901516103b2601f8916826102bf565b8355505b6001600288020188555050505b505050505050565b614c97806103da6000396000f3fe60806040526004361061011f5760003560e01c8063583d9a95116100a0578063b88d4fde11610064578063b88d4fde146103e8578063cb39daca14610411578063e985e9c51461043c578063f3ca60f014610479578063f5f83079146104a45761011f565b8063583d9a95146102dd5780636352211e1461031a57806370a082311461035757806395d89b4114610394578063a22cb465146103bf5761011f565b80631b2964cf116100e75780631b2964cf1461020e57806323b872dd146102375780633bee09801461026057806342842e0e1461028b5780634e38462c146102b45761011f565b806301ffc9a71461012457806306fdde0314610161578063081812fc1461018c578063095ea7b3146101c9578063110d35b8146101f2575b600080fd5b34801561013057600080fd5b5061014b60048036038101906101469190612f1e565b6104e1565b6040516101589190612f66565b60405180910390f35b34801561016d57600080fd5b506101766105b3565b6040516101839190613011565b60405180910390f35b34801561019857600080fd5b506101b360048036038101906101ae9190613069565b610645565b6040516101c091906130d7565b60405180910390f35b3480156101d557600080fd5b506101f060048036038101906101eb919061311e565b61068c565b005b61020c60048036038101906102079190613069565b61069b565b005b34801561021a57600080fd5b506102356004803603810190610230919061315e565b610cc6565b005b34801561024357600080fd5b5061025e6004803603810190610259919061319e565b610ea8565b005b34801561026c57600080fd5b50610275610fed565b6040516102829190613435565b60405180910390f35b34801561029757600080fd5b506102b260048036038101906102ad919061319e565b611312565b005b3480156102c057600080fd5b506102db60048036038101906102d6919061358c565b611332565b005b3480156102e957600080fd5b5061030460048036038101906102ff9190613069565b611555565b60405161031191906136ba565b60405180910390f35b34801561032657600080fd5b50610341600480360381019061033c9190613069565b6117c9565b60405161034e91906130d7565b60405180910390f35b34801561036357600080fd5b5061037e600480360381019061037991906136dc565b6117db565b60405161038b9190613718565b60405180910390f35b3480156103a057600080fd5b506103a9611892565b6040516103b69190613011565b60405180910390f35b3480156103cb57600080fd5b506103e660048036038101906103e1919061375f565b611924565b005b3480156103f457600080fd5b5061040f600480360381019061040a91906137ff565b611933565b005b34801561041d57600080fd5b5061042661198a565b6040516104339190613435565b60405180910390f35b34801561044857600080fd5b50610463600480360381019061045e9190613887565b611c45565b6040516104709190612f66565b60405180910390f35b34801561048557600080fd5b5061048e611cd9565b60405161049b9190613a19565b60405180910390f35b3480156104b057600080fd5b506104cb60048036038101906104c69190613069565b611f36565b6040516104d89190613bad565b60405180910390f35b60007f80ac58cd000000000000000000000000000000000000000000000000000000007bffffffffffffffffffffffffffffffffffffffffffffffffffffffff1916827bffffffffffffffffffffffffffffffffffffffffffffffffffffffff191614806105ac57507f01ffc9a7000000000000000000000000000000000000000000000000000000007bffffffffffffffffffffffffffffffffffffffffffffffffffffffff1916827bffffffffffffffffffffffffffffffffffffffffffffffffffffffff1916145b9050919050565b6060600080546105c290613bfe565b80601f01602080910402602001604051908101604052809291908181526020018280546105ee90613bfe565b801561063b5780601f106106105761010080835404028352916020019161063b565b820191906000526020600020905b81548152906001019060200180831161061e57829003601f168201915b5050505050905090565b6000610650826120f7565b506004600083815260200190815260200160002060009054906101000a900473ffffffffffffffffffffffffffffffffffffffff169050919050565b61069782823361217c565b5050565b80600060018111156106b0576106af61323b565b5b6007600083815260200190815260200160002060020160009054906101000a900460ff1660018111156106e6576106e561323b565b5b14610726576040517f08c379a000000000000000000000000000000000000000000000000000000000815260040161071d90613c7b565b60405180910390fd5b81610730816123c5565b61076f576040517f08c379a000000000000000000000000000000000000000000000000000000000815260040161076690613ce7565b60405180910390fd5b600061077a84611555565b9050806020015173ffffffffffffffffffffffffffffffffffffffff163373ffffffffffffffffffffffffffffffffffffffff1614806107bd5750348160400151115b156109b257600960008581526020019081526020016000206040518060c001604052806009600088815260200190815260200160002080549050815260200183604001518152602001836020015173ffffffffffffffffffffffffffffffffffffffff1681526020013373ffffffffffffffffffffffffffffffffffffffff16815260200142815260200160018081111561085b5761085a61323b565b5b8152509080600181540180825580915050600190039060005260206000209060060201600090919091909150600082015181600001556020820151816001015560408201518160020160006101000a81548173ffffffffffffffffffffffffffffffffffffffff021916908373ffffffffffffffffffffffffffffffffffffffff16021790555060608201518160030160006101000a81548173ffffffffffffffffffffffffffffffffffffffff021916908373ffffffffffffffffffffffffffffffffffffffff1602179055506080820151816004015560a08201518160050160006101000a81548160ff0219169083600181111561095e5761095d61323b565b5b021790555050503373ffffffffffffffffffffffffffffffffffffffff166108fc349081150290604051600060405180830381858888f193505050501580156109ab573d6000803e3d6000fd5b5050610cc1565b6109c181602001513386612431565b8060400151341115610a24573373ffffffffffffffffffffffffffffffffffffffff166108fc8260400151346109f79190613d36565b9081150290604051600060405180830381858888f19350505050158015610a22573d6000803e3d6000fd5b505b806020015173ffffffffffffffffffffffffffffffffffffffff166108fc82604001519081150290604051600060405180830381858888f19350505050158015610a72573d6000803e3d6000fd5b5060016007600086815260200190815260200160002060020160006101000a81548160ff02191690836001811115610aad57610aac61323b565b5b021790555060086000815480929190610ac590613d6a565b9190505550600960008581526020019081526020016000206040518060c001604052806009600088815260200190815260200160002080549050815260200183604001518152602001836020015173ffffffffffffffffffffffffffffffffffffffff1681526020013373ffffffffffffffffffffffffffffffffffffffff16815260200142815260200160006001811115610b6457610b6361323b565b5b8152509080600181540180825580915050600190039060005260206000209060060201600090919091909150600082015181600001556020820151816001015560408201518160020160006101000a81548173ffffffffffffffffffffffffffffffffffffffff021916908373ffffffffffffffffffffffffffffffffffffffff16021790555060608201518160030160006101000a81548173ffffffffffffffffffffffffffffffffffffffff021916908373ffffffffffffffffffffffffffffffffffffffff1602179055506080820151816004015560a08201518160050160006101000a81548160ff02191690836001811115610c6757610c6661323b565b5b021790555050507fd1403e78e9147867f019bfa1cb5fe0e845c1086132685d7c0297d5f9c57b4e12848260a0015183604001518460800151856020015133604051610cb796959493929190613d93565b60405180910390a1505b505050565b81610cd0816123c5565b610d0f576040517f08c379a0000000000000000000000000000000000000000000000000000000008152600401610d0690613ce7565b60405180910390fd5b3383610d1b828261259d565b610d5a576040517f08c379a0000000000000000000000000000000000000000000000000000000008152600401610d5190613e74565b60405180910390fd5b60008411610d9d576040517f08c379a0000000000000000000000000000000000000000000000000000000008152600401610d9490613ee0565b60405180910390fd5b60006007600087815260200190815260200160002060020160009054906101000a900460ff16905084600760008881526020019081526020016000206001018190555060006007600088815260200190815260200160002060020160006101000a81548160ff02191690836001811115610e1a57610e1961323b565b5b021790555060006001811115610e3357610e3261323b565b5b816001811115610e4657610e4561323b565b5b14610e645760086000815480929190610e5e90613f00565b91905055505b7f6dd0cfd3eeb65d1eb8998d27c1f4be03dbce6e0d6cadce64576fc066c0d6540386600087604051610e9893929190613f57565b60405180910390a1505050505050565b6000610eb3826120f7565b90508373ffffffffffffffffffffffffffffffffffffffff168173ffffffffffffffffffffffffffffffffffffffff1614610f23576040517f08c379a0000000000000000000000000000000000000000000000000000000008152600401610f1a90614000565b60405180910390fd5b600073ffffffffffffffffffffffffffffffffffffffff168373ffffffffffffffffffffffffffffffffffffffff1603610f92576040517f08c379a0000000000000000000000000000000000000000000000000000000008152600401610f8990614092565b60405180910390fd5b610f9d3382846125de565b610fdc576040517f08c379a0000000000000000000000000000000000000000000000000000000008152600401610fd390614124565b60405180910390fd5b610fe7848484612431565b50505050565b6060600060085467ffffffffffffffff81111561100d5761100c613461565b5b60405190808252806020026020018201604052801561104657816020015b611033612e05565b81526020019060019003908161102b5790505b5090506000805b600654811015611309576000600181111561106b5761106a61323b565b5b6007600083815260200190815260200160002060020160009054906101000a900460ff1660018111156110a1576110a061323b565b5b036112fc57600854821015611309576000600760008381526020019081526020016000206040518060c001604052908160008201548152602001600182015481526020016002820160009054906101000a900460ff1660018111156111095761110861323b565b5b600181111561111b5761111a61323b565b5b815260200160038201805461112f90613bfe565b80601f016020809104026020016040519081016040528092919081815260200182805461115b90613bfe565b80156111a85780601f1061117d576101008083540402835291602001916111a8565b820191906000526020600020905b81548152906001019060200180831161118b57829003601f168201915b505050505081526020016004820180546111c190613bfe565b80601f01602080910402602001604051908101604052809291908181526020018280546111ed90613bfe565b801561123a5780601f1061120f5761010080835404028352916020019161123a565b820191906000526020600020905b81548152906001019060200180831161121d57829003601f168201915b5050505050815260200160058201548152505090506040518060e001604052808260000151815260200161127183600001516120f7565b73ffffffffffffffffffffffffffffffffffffffff16815260200182602001518152602001826040015160018111156112ad576112ac61323b565b5b815260200182606001518152602001826080015181526020018260a001518152508484815181106112e1576112e0614144565b5b602002602001018190525082806112f790613f00565b935050505b808060010191505061104d565b50819250505090565b61132d83838360405180602001604052806000815250612667565b505050565b60008311611375576040517f08c379a000000000000000000000000000000000000000000000000000000000815260040161136c90613ee0565b60405180910390fd5b60008251116113b9576040517f08c379a00000000000000000000000000000000000000000000000000000000081526004016113b0906141bf565b60405180910390fd5b60008151116113fd576040517f08c379a00000000000000000000000000000000000000000000000000000000081526004016113f49061422b565b60405180910390fd5b60006006600081548092919061141290613f00565b91905055905060006040518060c00160405280838152602001868152602001600060018111156114455761144461323b565b5b81526020018581526020018481526020014281525090508060076000848152602001908152602001600020600082015181600001556020820151816001015560408201518160020160006101000a81548160ff021916908360018111156114af576114ae61323b565b5b021790555060608201518160030190816114c991906143f7565b5060808201518160040190816114df91906143f7565b5060a082015181600501559050506008600081548092919061150090613f00565b919050555061150f33836127b9565b7fd9b1bf6f921f3d83f9d877d73339b6bca523efe5867566981dbce40599f2dfcd82848787336040516115469594939291906144c9565b60405180910390a15050505050565b61155d612e05565b81611567816123c5565b6115a6576040517f08c379a000000000000000000000000000000000000000000000000000000000815260040161159d90613ce7565b60405180910390fd5b6000600760008581526020019081526020016000206040518060c001604052908160008201548152602001600182015481526020016002820160009054906101000a900460ff1660018111156115ff576115fe61323b565b5b60018111156116115761161061323b565b5b815260200160038201805461162590613bfe565b80601f016020809104026020016040519081016040528092919081815260200182805461165190613bfe565b801561169e5780601f106116735761010080835404028352916020019161169e565b820191906000526020600020905b81548152906001019060200180831161168157829003601f168201915b505050505081526020016004820180546116b790613bfe565b80601f01602080910402602001604051908101604052809291908181526020018280546116e390613bfe565b80156117305780601f1061170557610100808354040283529160200191611730565b820191906000526020600020905b81548152906001019060200180831161171357829003601f168201915b5050505050815260200160058201548152505090506040518060e0016040528082600001518152602001611763866120f7565b73ffffffffffffffffffffffffffffffffffffffff168152602001826020015181526020018260400151600181111561179f5761179e61323b565b5b815260200182606001518152602001826080015181526020018260a0015181525092505050919050565b60006117d4826120f7565b9050919050565b60008073ffffffffffffffffffffffffffffffffffffffff168273ffffffffffffffffffffffffffffffffffffffff160361184b576040517f08c379a00000000000000000000000000000000000000000000000000000000081526004016118429061459c565b60405180910390fd5b600360008373ffffffffffffffffffffffffffffffffffffffff1673ffffffffffffffffffffffffffffffffffffffff168152602001908152602001600020549050919050565b6060600180546118a190613bfe565b80601f01602080910402602001604051908101604052809291908181526020018280546118cd90613bfe565b801561191a5780601f106118ef5761010080835404028352916020019161191a565b820191906000526020600020905b8154815290600101906020018083116118fd57829003601f168201915b5050505050905090565b61192f33838361297a565b5050565b61198385858585858080601f016020809104026020016040519081016040528093929190818152602001838380828437600081840152601f19601f82011690508083019250505050505050612667565b5050505050565b6060600060065467ffffffffffffffff8111156119aa576119a9613461565b5b6040519080825280602002602001820160405280156119e357816020015b6119d0612e05565b8152602001906001900390816119c85790505b50905060005b600654811015611c3d576000600760008381526020019081526020016000206040518060c001604052908160008201548152602001600182015481526020016002820160009054906101000a900460ff166001811115611a4c57611a4b61323b565b5b6001811115611a5e57611a5d61323b565b5b8152602001600382018054611a7290613bfe565b80601f0160208091040260200160405190810160405280929190818152602001828054611a9e90613bfe565b8015611aeb5780601f10611ac057610100808354040283529160200191611aeb565b820191906000526020600020905b815481529060010190602001808311611ace57829003601f168201915b50505050508152602001600482018054611b0490613bfe565b80601f0160208091040260200160405190810160405280929190818152602001828054611b3090613bfe565b8015611b7d5780601f10611b5257610100808354040283529160200191611b7d565b820191906000526020600020905b815481529060010190602001808311611b6057829003601f168201915b5050505050815260200160058201548152505090506040518060e0016040528082600001518152602001611bb483600001516120f7565b73ffffffffffffffffffffffffffffffffffffffff1681526020018260200151815260200182604001516001811115611bf057611bef61323b565b5b815260200182606001518152602001826080015181526020018260a00151815250838381518110611c2457611c23614144565b5b60200260200101819052505080806001019150506119e9565b508091505090565b6000600560008473ffffffffffffffffffffffffffffffffffffffff1673ffffffffffffffffffffffffffffffffffffffff16815260200190815260200160002060008373ffffffffffffffffffffffffffffffffffffffff1673ffffffffffffffffffffffffffffffffffffffff16815260200190815260200160002060009054906101000a900460ff16905092915050565b60606000611ce6336117db565b67ffffffffffffffff811115611cff57611cfe613461565b5b604051908082528060200260200182016040528015611d3857816020015b611d25612e6a565b815260200190600190039081611d1d5790505b5090506000805b600654811015611f2d57611d53338261259d565b15611f2057600760008281526020019081526020016000206040518060c001604052908160008201548152602001600182015481526020016002820160009054906101000a900460ff166001811115611daf57611dae61323b565b5b6001811115611dc157611dc061323b565b5b8152602001600382018054611dd590613bfe565b80601f0160208091040260200160405190810160405280929190818152602001828054611e0190613bfe565b8015611e4e5780601f10611e2357610100808354040283529160200191611e4e565b820191906000526020600020905b815481529060010190602001808311611e3157829003601f168201915b50505050508152602001600482018054611e6790613bfe565b80601f0160208091040260200160405190810160405280929190818152602001828054611e9390613bfe565b8015611ee05780601f10611eb557610100808354040283529160200191611ee0565b820191906000526020600020905b815481529060010190602001808311611ec357829003601f168201915b50505050508152602001600582015481525050838381518110611f0657611f05614144565b5b60200260200101819052508180611f1c90613f00565b9250505b8080600101915050611d3f565b50819250505090565b606081611f42816123c5565b611f81576040517f08c379a0000000000000000000000000000000000000000000000000000000008152600401611f7890613ce7565b60405180910390fd5b60096000848152602001908152602001600020805480602002602001604051908101604052809291908181526020016000905b828210156120eb57838290600052602060002090600602016040518060c001604052908160008201548152602001600182015481526020016002820160009054906101000a900473ffffffffffffffffffffffffffffffffffffffff1673ffffffffffffffffffffffffffffffffffffffff1673ffffffffffffffffffffffffffffffffffffffff1681526020016003820160009054906101000a900473ffffffffffffffffffffffffffffffffffffffff1673ffffffffffffffffffffffffffffffffffffffff1673ffffffffffffffffffffffffffffffffffffffff168152602001600482015481526020016005820160009054906101000a900460ff1660018111156120c6576120c561323b565b5b60018111156120d8576120d761323b565b5b8152505081526020019060010190611fb4565b50505050915050919050565b6000612102826123c5565b612141576040517f08c379a00000000000000000000000000000000000000000000000000000000081526004016121389061462e565b60405180910390fd5b6002600083815260200190815260200160002060009054906101000a900473ffffffffffffffffffffffffffffffffffffffff169050919050565b6000612187836120f7565b90508073ffffffffffffffffffffffffffffffffffffffff168273ffffffffffffffffffffffffffffffffffffffff1614806121c957506121c88183611c45565b5b612208576040517f08c379a00000000000000000000000000000000000000000000000000000000081526004016121ff906146c0565b60405180910390fd5b600073ffffffffffffffffffffffffffffffffffffffff168473ffffffffffffffffffffffffffffffffffffffff16146122ab578373ffffffffffffffffffffffffffffffffffffffff168173ffffffffffffffffffffffffffffffffffffffff16036122aa576040517f08c379a00000000000000000000000000000000000000000000000000000000081526004016122a190614752565b60405180910390fd5b5b8373ffffffffffffffffffffffffffffffffffffffff166004600085815260200190815260200160002060009054906101000a900473ffffffffffffffffffffffffffffffffffffffff1673ffffffffffffffffffffffffffffffffffffffff16146123bf57836004600085815260200190815260200160002060006101000a81548173ffffffffffffffffffffffffffffffffffffffff021916908373ffffffffffffffffffffffffffffffffffffffff160217905550828473ffffffffffffffffffffffffffffffffffffffff168273ffffffffffffffffffffffffffffffffffffffff167f8c5be1e5ebec7d5bd14f71427d1e84f3dd0314c0f7b2291e5b200ac8c7c3b92560405160405180910390a45b50505050565b60008073ffffffffffffffffffffffffffffffffffffffff166002600084815260200190815260200160002060009054906101000a900473ffffffffffffffffffffffffffffffffffffffff1673ffffffffffffffffffffffffffffffffffffffff1614159050919050565b61243d6000828561217c565b6001600360008573ffffffffffffffffffffffffffffffffffffffff1673ffffffffffffffffffffffffffffffffffffffff168152602001908152602001600020600082825461248d9190613d36565b925050819055506001600360008473ffffffffffffffffffffffffffffffffffffffff1673ffffffffffffffffffffffffffffffffffffffff16815260200190815260200160002060008282546124e49190614772565b92505081905550816002600083815260200190815260200160002060006101000a81548173ffffffffffffffffffffffffffffffffffffffff021916908373ffffffffffffffffffffffffffffffffffffffff160217905550808273ffffffffffffffffffffffffffffffffffffffff168473ffffffffffffffffffffffffffffffffffffffff167fddf252ad1be2c89b69c2b068fc378daa952ba7f163c4a11628f55a4df523b3ef60405160405180910390a4505050565b60006125a8826120f7565b73ffffffffffffffffffffffffffffffffffffffff168373ffffffffffffffffffffffffffffffffffffffff1614905092915050565b60008273ffffffffffffffffffffffffffffffffffffffff168473ffffffffffffffffffffffffffffffffffffffff16148061264d57508373ffffffffffffffffffffffffffffffffffffffff1661263583610645565b73ffffffffffffffffffffffffffffffffffffffff16145b8061265e575061265d8385611c45565b5b90509392505050565b6000612672836120f7565b90508473ffffffffffffffffffffffffffffffffffffffff168173ffffffffffffffffffffffffffffffffffffffff16146126e2576040517f08c379a00000000000000000000000000000000000000000000000000000000081526004016126d990614000565b60405180910390fd5b600073ffffffffffffffffffffffffffffffffffffffff168473ffffffffffffffffffffffffffffffffffffffff1603612751576040517f08c379a000000000000000000000000000000000000000000000000000000000815260040161274890614092565b60405180910390fd5b61275c3382856125de565b61279b576040517f08c379a000000000000000000000000000000000000000000000000000000000815260040161279290614124565b60405180910390fd5b6127a6858585612431565b6127b285858585612c59565b5050505050565b600073ffffffffffffffffffffffffffffffffffffffff168273ffffffffffffffffffffffffffffffffffffffff1603612828576040517f08c379a000000000000000000000000000000000000000000000000000000000815260040161281f906147f2565b60405180910390fd5b612831816123c5565b15612871576040517f08c379a00000000000000000000000000000000000000000000000000000000081526004016128689061485e565b60405180910390fd5b6001600360008473ffffffffffffffffffffffffffffffffffffffff1673ffffffffffffffffffffffffffffffffffffffff16815260200190815260200160002060008282546128c19190614772565b92505081905550816002600083815260200190815260200160002060006101000a81548173ffffffffffffffffffffffffffffffffffffffff021916908373ffffffffffffffffffffffffffffffffffffffff160217905550808273ffffffffffffffffffffffffffffffffffffffff16600073ffffffffffffffffffffffffffffffffffffffff167fddf252ad1be2c89b69c2b068fc378daa952ba7f163c4a11628f55a4df523b3ef60405160405180910390a45050565b600073ffffffffffffffffffffffffffffffffffffffff168373ffffffffffffffffffffffffffffffffffffffff16036129e9576040517f08c379a00000000000000000000000000000000000000000000000000000000081526004016129e0906148f0565b60405180910390fd5b600073ffffffffffffffffffffffffffffffffffffffff168273ffffffffffffffffffffffffffffffffffffffff1603612a58576040517f08c379a0000000000000000000000000000000000000000000000000000000008152600401612a4f90614982565b60405180910390fd5b8273ffffffffffffffffffffffffffffffffffffffff168273ffffffffffffffffffffffffffffffffffffffff1603612ac6576040517f08c379a0000000000000000000000000000000000000000000000000000000008152600401612abd90614a14565b60405180910390fd5b801515600560008573ffffffffffffffffffffffffffffffffffffffff1673ffffffffffffffffffffffffffffffffffffffff16815260200190815260200160002060008473ffffffffffffffffffffffffffffffffffffffff1673ffffffffffffffffffffffffffffffffffffffff16815260200190815260200160002060009054906101000a900460ff16151514612c545780600560008573ffffffffffffffffffffffffffffffffffffffff1673ffffffffffffffffffffffffffffffffffffffff16815260200190815260200160002060008473ffffffffffffffffffffffffffffffffffffffff1673ffffffffffffffffffffffffffffffffffffffff16815260200190815260200160002060006101000a81548160ff0219169083151502179055508173ffffffffffffffffffffffffffffffffffffffff168373ffffffffffffffffffffffffffffffffffffffff167f17307eab39ab6107e8899845ad3d59bd9653f200f220920489ca2b5937696c3183604051612c4b9190612f66565b60405180910390a35b505050565b60008373ffffffffffffffffffffffffffffffffffffffff163b1115612dff578273ffffffffffffffffffffffffffffffffffffffff1663150b7a02338685856040518563ffffffff1660e01b8152600401612cb89493929190614a89565b6020604051808303816000875af1925050508015612cf457506040513d601f19601f82011682018060405250810190612cf19190614aea565b60015b612d76573d8060008114612d24576040519150601f19603f3d011682016040523d82523d6000602084013e612d29565b606091505b506000815103612d6e576040517f08c379a0000000000000000000000000000000000000000000000000000000008152600401612d6590614baf565b60405180910390fd5b805181602001fd5b63150b7a0260e01b7bffffffffffffffffffffffffffffffffffffffffffffffffffffffff1916817bffffffffffffffffffffffffffffffffffffffffffffffffffffffff191614612dfd576040517f08c379a0000000000000000000000000000000000000000000000000000000008152600401612df490614c41565b60405180910390fd5b505b50505050565b6040518060e0016040528060008152602001600073ffffffffffffffffffffffffffffffffffffffff1681526020016000815260200160006001811115612e4f57612e4e61323b565b5b81526020016060815260200160608152602001600081525090565b6040518060c00160405280600081526020016000815260200160006001811115612e9757612e9661323b565b5b81526020016060815260200160608152602001600081525090565b6000604051905090565b600080fd5b600080fd5b60007fffffffff0000000000000000000000000000000000000000000000000000000082169050919050565b612efb81612ec6565b8114612f0657600080fd5b50565b600081359050612f1881612ef2565b92915050565b600060208284031215612f3457612f33612ebc565b5b6000612f4284828501612f09565b91505092915050565b60008115159050919050565b612f6081612f4b565b82525050565b6000602082019050612f7b6000830184612f57565b92915050565b600081519050919050565b600082825260208201905092915050565b60005b83811015612fbb578082015181840152602081019050612fa0565b60008484015250505050565b6000601f19601f8301169050919050565b6000612fe382612f81565b612fed8185612f8c565b9350612ffd818560208601612f9d565b61300681612fc7565b840191505092915050565b6000602082019050818103600083015261302b8184612fd8565b905092915050565b6000819050919050565b61304681613033565b811461305157600080fd5b50565b6000813590506130638161303d565b92915050565b60006020828403121561307f5761307e612ebc565b5b600061308d84828501613054565b91505092915050565b600073ffffffffffffffffffffffffffffffffffffffff82169050919050565b60006130c182613096565b9050919050565b6130d1816130b6565b82525050565b60006020820190506130ec60008301846130c8565b92915050565b6130fb816130b6565b811461310657600080fd5b50565b600081359050613118816130f2565b92915050565b6000806040838503121561313557613134612ebc565b5b600061314385828601613109565b925050602061315485828601613054565b9150509250929050565b6000806040838503121561317557613174612ebc565b5b600061318385828601613054565b925050602061319485828601613054565b9150509250929050565b6000806000606084860312156131b7576131b6612ebc565b5b60006131c586828701613109565b93505060206131d686828701613109565b92505060406131e786828701613054565b9150509250925092565b600081519050919050565b600082825260208201905092915050565b6000819050602082019050919050565b61322681613033565b82525050565b613235816130b6565b82525050565b7f4e487b7100000000000000000000000000000000000000000000000000000000600052602160045260246000fd5b6002811061327b5761327a61323b565b5b50565b600081905061328c8261326a565b919050565b600061329c8261327e565b9050919050565b6132ac81613291565b82525050565b600082825260208201905092915050565b60006132ce82612f81565b6132d881856132b2565b93506132e8818560208601612f9d565b6132f181612fc7565b840191505092915050565b600060e083016000830151613314600086018261321d565b506020830151613327602086018261322c565b50604083015161333a604086018261321d565b50606083015161334d60608601826132a3565b506080830151848203608086015261336582826132c3565b91505060a083015184820360a086015261337f82826132c3565b91505060c083015161339460c086018261321d565b508091505092915050565b60006133ab83836132fc565b905092915050565b6000602082019050919050565b60006133cb826131f1565b6133d581856131fc565b9350836020820285016133e78561320d565b8060005b858110156134235784840389528151613404858261339f565b945061340f836133b3565b925060208a019950506001810190506133eb565b50829750879550505050505092915050565b6000602082019050818103600083015261344f81846133c0565b905092915050565b600080fd5b600080fd5b7f4e487b7100000000000000000000000000000000000000000000000000000000600052604160045260246000fd5b61349982612fc7565b810181811067ffffffffffffffff821117156134b8576134b7613461565b5b80604052505050565b60006134cb612eb2565b90506134d78282613490565b919050565b600067ffffffffffffffff8211156134f7576134f6613461565b5b61350082612fc7565b9050602081019050919050565b82818337600083830152505050565b600061352f61352a846134dc565b6134c1565b90508281526020810184848401111561354b5761354a61345c565b5b61355684828561350d565b509392505050565b600082601f83011261357357613572613457565b5b813561358384826020860161351c565b91505092915050565b6000806000606084860312156135a5576135a4612ebc565b5b60006135b386828701613054565b935050602084013567ffffffffffffffff8111156135d4576135d3612ec1565b5b6135e08682870161355e565b925050604084013567ffffffffffffffff81111561360157613600612ec1565b5b61360d8682870161355e565b9150509250925092565b600060e08301600083015161362f600086018261321d565b506020830151613642602086018261322c565b506040830151613655604086018261321d565b50606083015161366860608601826132a3565b506080830151848203608086015261368082826132c3565b91505060a083015184820360a086015261369a82826132c3565b91505060c08301516136af60c086018261321d565b508091505092915050565b600060208201905081810360008301526136d48184613617565b905092915050565b6000602082840312156136f2576136f1612ebc565b5b600061370084828501613109565b91505092915050565b61371281613033565b82525050565b600060208201905061372d6000830184613709565b92915050565b61373c81612f4b565b811461374757600080fd5b50565b60008135905061375981613733565b92915050565b6000806040838503121561377657613775612ebc565b5b600061378485828601613109565b92505060206137958582860161374a565b9150509250929050565b600080fd5b600080fd5b60008083601f8401126137bf576137be613457565b5b8235905067ffffffffffffffff8111156137dc576137db61379f565b5b6020830191508360018202830111156137f8576137f76137a4565b5b9250929050565b60008060008060006080868803121561381b5761381a612ebc565b5b600061382988828901613109565b955050602061383a88828901613109565b945050604061384b88828901613054565b935050606086013567ffffffffffffffff81111561386c5761386b612ec1565b5b613878888289016137a9565b92509250509295509295909350565b6000806040838503121561389e5761389d612ebc565b5b60006138ac85828601613109565b92505060206138bd85828601613109565b9150509250929050565b600081519050919050565b600082825260208201905092915050565b6000819050602082019050919050565b600060c08301600083015161390b600086018261321d565b50602083015161391e602086018261321d565b50604083015161393160408601826132a3565b506060830151848203606086015261394982826132c3565b9150506080830151848203608086015261396382826132c3565b91505060a083015161397860a086018261321d565b508091505092915050565b600061398f83836138f3565b905092915050565b6000602082019050919050565b60006139af826138c7565b6139b981856138d2565b9350836020820285016139cb856138e3565b8060005b85811015613a0757848403895281516139e88582613983565b94506139f383613997565b925060208a019950506001810190506139cf565b50829750879550505050505092915050565b60006020820190508181036000830152613a3381846139a4565b905092915050565b600081519050919050565b600082825260208201905092915050565b6000819050602082019050919050565b60028110613a7857613a7761323b565b5b50565b6000819050613a8982613a67565b919050565b6000613a9982613a7b565b9050919050565b613aa981613a8e565b82525050565b60c082016000820151613ac5600085018261321d565b506020820151613ad8602085018261321d565b506040820151613aeb604085018261322c565b506060820151613afe606085018261322c565b506080820151613b11608085018261321d565b5060a0820151613b2460a0850182613aa0565b50505050565b6000613b368383613aaf565b60c08301905092915050565b6000602082019050919050565b6000613b5a82613a3b565b613b648185613a46565b9350613b6f83613a57565b8060005b83811015613ba0578151613b878882613b2a565b9750613b9283613b42565b925050600181019050613b73565b5085935050505092915050565b60006020820190508181036000830152613bc78184613b4f565b905092915050565b7f4e487b7100000000000000000000000000000000000000000000000000000000600052602260045260246000fd5b60006002820490506001821680613c1657607f821691505b602082108103613c2957613c28613bcf565b5b50919050565b7f546f6b656e206e6f7420617661696c61626c6500000000000000000000000000600082015250565b6000613c65601383612f8c565b9150613c7082613c2f565b602082019050919050565b60006020820190508181036000830152613c9481613c58565b9050919050565b7f5175657279206e6f6e2d657869737420746f6b656e0000000000000000000000600082015250565b6000613cd1601583612f8c565b9150613cdc82613c9b565b602082019050919050565b60006020820190508181036000830152613d0081613cc4565b9050919050565b7f4e487b7100000000000000000000000000000000000000000000000000000000600052601160045260246000fd5b6000613d4182613033565b9150613d4c83613033565b9250828203905081811115613d6457613d63613d07565b5b92915050565b6000613d7582613033565b915060008203613d8857613d87613d07565b5b600182039050919050565b600060c082019050613da86000830189613709565b8181036020830152613dba8188612fd8565b9050613dc96040830187613709565b8181036060830152613ddb8186612fd8565b9050613dea60808301856130c8565b613df760a08301846130c8565b979650505050505050565b7f596f7520617265206e6f7420746865206f776e6572206f66207468697320617360008201527f7365740000000000000000000000000000000000000000000000000000000000602082015250565b6000613e5e602383612f8c565b9150613e6982613e02565b604082019050919050565b60006020820190508181036000830152613e8d81613e51565b9050919050565b7f5072696365206d7573742062652067726561746572207468616e203000000000600082015250565b6000613eca601c83612f8c565b9150613ed582613e94565b602082019050919050565b60006020820190508181036000830152613ef981613ebd565b9050919050565b6000613f0b82613033565b91507fffffffffffffffffffffffffffffffffffffffffffffffffffffffffffffffff8203613f3d57613f3c613d07565b5b600182019050919050565b613f5181613291565b82525050565b6000606082019050613f6c6000830186613709565b613f796020830185613f48565b613f866040830184613709565b949350505050565b7f4552433732313a207472616e736665722066726f6d20696e636f72726563742060008201527f6f776e6572000000000000000000000000000000000000000000000000000000602082015250565b6000613fea602583612f8c565b9150613ff582613f8e565b604082019050919050565b6000602082019050818103600083015261401981613fdd565b9050919050565b7f4552433732313a207472616e7366657220746f20746865207a65726f2061646460008201527f7265737300000000000000000000000000000000000000000000000000000000602082015250565b600061407c602483612f8c565b915061408782614020565b604082019050919050565b600060208201905081810360008301526140ab8161406f565b9050919050565b7f4552433732313a207472616e736665722063616c6c6572206973206e6f74206f60008201527f776e6572206e6f7220617070726f766564000000000000000000000000000000602082015250565b600061410e603183612f8c565b9150614119826140b2565b604082019050919050565b6000602082019050818103600083015261413d81614101565b9050919050565b7f4e487b7100000000000000000000000000000000000000000000000000000000600052603260045260246000fd5b7f4d65746164617461205552492063616e6e6f7420626520656d70747900000000600082015250565b60006141a9601c83612f8c565b91506141b482614173565b602082019050919050565b600060208201905081810360008301526141d88161419c565b9050919050565b7f4e616d652063616e6e6f7420626520656d707479000000000000000000000000600082015250565b6000614215601483612f8c565b9150614220826141df565b602082019050919050565b6000602082019050818103600083015261424481614208565b9050919050565b60008190508160005260206000209050919050565b60006020601f8301049050919050565b600082821b905092915050565b6000600883026142ad7fffffffffffffffffffffffffffffffffffffffffffffffffffffffffffffffff82614270565b6142b78683614270565b95508019841693508086168417925050509392505050565b6000819050919050565b60006142f46142ef6142ea84613033565b6142cf565b613033565b9050919050565b6000819050919050565b61430e836142d9565b61432261431a826142fb565b84845461427d565b825550505050565b600090565b61433761432a565b614342818484614305565b505050565b5b818110156143665761435b60008261432f565b600181019050614348565b5050565b601f8211156143ab5761437c8161424b565b61438584614260565b81016020851015614394578190505b6143a86143a085614260565b830182614347565b50505b505050565b600082821c905092915050565b60006143ce600019846008026143b0565b1980831691505092915050565b60006143e783836143bd565b9150826002028217905092915050565b61440082612f81565b67ffffffffffffffff81111561441957614418613461565b5b6144238254613bfe565b61442e82828561436a565b600060209050601f831160018114614461576000841561444f578287015190505b61445985826143db565b8655506144c1565b601f19841661446f8661424b565b60005b8281101561449757848901518255600182019150602085019450602081019050614472565b868310156144b457848901516144b0601f8916826143bd565b8355505b6001600288020188555050505b505050505050565b600060a0820190506144de6000830188613709565b81810360208301526144f08187612fd8565b90506144ff6040830186613709565b81810360608301526145118185612fd8565b905061452060808301846130c8565b9695505050505050565b7f4552433732313a2062616c616e636520717565727920666f7220746865207a6560008201527f726f206164647265737300000000000000000000000000000000000000000000602082015250565b6000614586602a83612f8c565b91506145918261452a565b604082019050919050565b600060208201905081810360008301526145b581614579565b9050919050565b7f4552433732313a20717565727920666f72206e6f6e6578697374656e7420746f60008201527f6b656e0000000000000000000000000000000000000000000000000000000000602082015250565b6000614618602383612f8c565b9150614623826145bc565b604082019050919050565b600060208201905081810360008301526146478161460b565b9050919050565b7f4552433732313a20617070726f76652063616c6c6572206973206e6f74206f7760008201527f6e6572206e6f7220617070726f76656420666f7220616c6c0000000000000000602082015250565b60006146aa603883612f8c565b91506146b58261464e565b604082019050919050565b600060208201905081810360008301526146d98161469d565b9050919050565b7f4552433732313a20617070726f76616c20746f2063757272656e74206f776e6560008201527f7200000000000000000000000000000000000000000000000000000000000000602082015250565b600061473c602183612f8c565b9150614747826146e0565b604082019050919050565b6000602082019050818103600083015261476b8161472f565b9050919050565b600061477d82613033565b915061478883613033565b92508282019050808211156147a05761479f613d07565b5b92915050565b7f4552433732313a206d696e7420746f20746865207a65726f2061646472657373600082015250565b60006147dc602083612f8c565b91506147e7826147a6565b602082019050919050565b6000602082019050818103600083015261480b816147cf565b9050919050565b7f4552433732313a20746f6b656e20616c7265616479206d696e74656400000000600082015250565b6000614848601c83612f8c565b915061485382614812565b602082019050919050565b600060208201905081810360008301526148778161483b565b9050919050565b7f4552433732313a20617070726f76652066726f6d20746865207a65726f20616460008201527f6472657373000000000000000000000000000000000000000000000000000000602082015250565b60006148da602583612f8c565b91506148e58261487e565b604082019050919050565b60006020820190508181036000830152614909816148cd565b9050919050565b7f4552433732313a20617070726f766520746f20746865207a65726f206164647260008201527f6573730000000000000000000000000000000000000000000000000000000000602082015250565b600061496c602383612f8c565b915061497782614910565b604082019050919050565b6000602082019050818103600083015261499b8161495f565b9050919050565b7f4552433732313a2063616e6e6f7420617070726f76652073656c66206173206f60008201527f70657261746f7200000000000000000000000000000000000000000000000000602082015250565b60006149fe602783612f8c565b9150614a09826149a2565b604082019050919050565b60006020820190508181036000830152614a2d816149f1565b9050919050565b600081519050919050565b600082825260208201905092915050565b6000614a5b82614a34565b614a658185614a3f565b9350614a75818560208601612f9d565b614a7e81612fc7565b840191505092915050565b6000608082019050614a9e60008301876130c8565b614aab60208301866130c8565b614ab86040830185613709565b8181036060830152614aca8184614a50565b905095945050505050565b600081519050614ae481612ef2565b92915050565b600060208284031215614b0057614aff612ebc565b5b6000614b0e84828501614ad5565b91505092915050565b7f4552433732313a207472616e7366657220746f206e6f6e20455243373231526560008201527f63656976657220696d706c656d656e746572202863616c6c207265766572746560208201527f6420776974686f757420726561736f6e29000000000000000000000000000000604082015250565b6000614b99605183612f8c565b9150614ba482614b17565b606082019050919050565b60006020820190508181036000830152614bc881614b8c565b9050919050565b7f4552433732313a207472616e7366657220746f206e6f6e20455243373231526560008201527f63656976657220696d706c656d656e7465720000000000000000000000000000602082015250565b6000614c2b603283612f8c565b9150614c3682614bcf565b604082019050919050565b60006020820190508181036000830152614c5a81614c1e565b905091905056fea26469706673582212205367e6ea444947fc411fec8b6602e85d17ce3483de831fd80b31664f0680a46364736f6c634300081c0033",
  "linkReferences": {},
  "deployedLinkReferences": {}
}